:020000040002F8
:10300000D05E0020E9330200F1330200F333020006
:10301000F5330200F7330200F9330200000000002C
:10302000000000000000000000000000FB33020070
:10303000FD33020000000000FF33020001340200F3
:103040005D38020003340200793E020003340200BE
:103050000334020003340200B535020003340200D9
:10306000033402000334020003340200033402007C
:10307000033402000334020003340200033402006C
:1030800003340200AD3802000334020003340200AE
:10309000D53B020003340200DD3B02000334020092
:1030A000033402000334020003340200033402003C
:1030B000033402000334020000000000000000009E
:1030C000033402000334020003340200033402001C
:1030D0000334020003340200033402000000000045
:1030E00000000000000000000000000000000000E0
:1030F00000000000000000000000000000000000D0
:1031000000000000000000000000000000000000BF
:1031100000000000000000000000000000000000AF
:10312000000000000000000000000000000000009F
:10313000000000000000000000000000000000008F
:10314000000000000000000000000000000000007F
:10315000000000000000000000000000000000006F
:10316000000000000000000000000000000000005F
:10317000000000000000000000000000000000004F
:10318000000000000000000000000000000000003F
:10319000000000000000000000000000000000002F
:1031A000000000000000000000000000000000001F
:1031B000000000000000000000000000000000000F
:1031C00000000000000000000000000000000000FF
:1031D00000000000000000000000000000000000EF
:1031E00000000000000000000000000000000000DF
:1031F00000000000000000000000000000000000CF
:10320000DFF80CD000F098F9004800476D910200FB
:10321000D05E002030B4044654E8000F0D4644E868
:103220000053002BF8D1156030BC704730B4044611
:1032300054E8000F40EA010544E80053002BF7D1A1
:10324000156030BC704730B4044654E8000F00EA03
:10325000010544E80053002BF7D1156030BC7047DE
:1032600030B4044654E8000F80EA010544E80053F6
:10327000002BF7D1156030BC704730B4044654E8D9
:10328000000F00EB010544E80053002BF7D1156057
:1032900030BC704730B4044654E8000FA0EB010581
:1032A00044E80053002BF7D1156030BC7047000094
:1032B00030B4044654E8000F0D4644E80053002B98
:1032C000F8D1156030BC704730B4044654E8000FA4
:1032D00040EA010544E80053002BF7D1156030BCEB
:1032E000704730B4044654E8000F00EA010544E892
:1032F0000053002BF7D1156030BC704730B4044642
:1033000054E8000F80EA010544E80053002BF7D190
:10331000156030BC704730B4044654E8000F00EB31
:10332000010544E80053002BF7D1156030BC70470D
:1033300030B4044654E8000FA0EB010544E8005304
:10334000002BF7D1156030BC7047000030B4044644
:1033500054E8000F0D4644E80053002BF8D11560E7
:1033600030BC704730B4044654E8000F40EA010511
:1033700044E80053002BF7D1156030BC704730B4DF
:10338000044654E8000F00EA010544E80053002B0E
:10339000F7D1156030BC704730B4044654E8000FD4
:1033A00080EA010544E80053002BF7D1156030BCDA
:1033B000704730B4044654E8000F00EB010544E8C0
:1033C0000053002BF7D1156030BC704730B4044671
:1033D00054E8000FA0EB010544E80053002BF7D19F
:1033E000156030BC7047000006488047064800471B
:1033F000FEE7FEE7FEE7FEE7FEE7FEE7FEE7FEE7A5
:10340000FEE7FEE7F53B0200013202002DE9F05F26
:103410000546002092469B46884606468146402443
:103420001BE0284641464746224600F075F85346C1
:103430005A46C01A914110D311461846224600F050
:103440005CF82D1A67EB01084F4622460120002147
:1034500000F053F817EB00094E41201EA4F10104BF
:10346000DFDC484631462A464346BDE8F09F00006F
:10347000004870475C06030040EA01039B0703D045
:1034800009E008C9121F08C0042AFAD203E011F8A3
:10349000013B00F8013B521EF9D27047D2B201E065
:1034A00000F8012B491EFBD270470022F6E710B549
:1034B00013460A4604461946FFF7F0FF204610BDA2
:1034C000421C10F8011B0029FBD1801A704730B54F
:1034D00004460020034600E05B1C934203D2E05CFC
:1034E000CD5C401BF8D030BD034611F8012B00F82D
:1034F000012B002AF9D118467047202A04DB203A14
:1035000000FA02F1002070479140C2F1200320FA36
:1035100003F3194390407047202A04DB203A21FA34
:1035200002F00021704721FA02F3D040C2F12002DC
:103530009140084319467047064C074D06E0E06885
:1035400040F0010394E8070098471034AC42F6D3EA
:10355000FFF75AFE380D0300580D030070B58C18A4
:1035600010F8015B15F0070301D110F8013B2A1197
:1035700006D110F8012B03E010F8016B01F8016B84
:103580005B1EF9D12B0705D40023521E0DD401F880
:10359000013BFAE710F8013BCB1A921C03E013F849
:1035A000015B01F8015B521EF9D5A142D8D300207E
:1035B00070BD00002DE9F04F89B04FF000080020E9
:1035C00008904FF4807007900126002413E00798BC
:1035D00007F024F848B100BF81480068304020B1AE
:1035E000079807F00DF848EA060876000798001DCE
:1035F00080B20790641C082CE9D34FF4BE7007F02A
:103600000DF850B14FF4BE7006F0FAFF48F00048D4
:1036100008AA0121002006F0D9FF08F0FF0000B33E
:10362000012600241BE006EA0800B0B100BF6D4887
:1036300050F82400C0F30420074600BF694850F842
:103640002400C0F301408146204602F0CDFF05462C
:1036500015B149463846A84700BF7600641C082CBF
:10366000E1D308F0004000287ED0002006900590AD
:10367000002505E04FF0FF3004A941F825006D1C3E
:10368000002DF7D000BF0020069000246FE05648C0
:10369000005D0390039820F0C00753480057401C7A
:1036A000002863D004A9384605F0C3FF00285DD088
:1036B00003984FEA901A384602F0DEFF814602F086
:1036C00093FF0290029810B9BAF1030F4BD1BAF1EF
:1036D000030F11D1394605A80246CB0801F00701B6
:1036E00012F803C04FF0010E0EFA01FE4CEA0E0C68
:1036F00002F803C000BF00BF00BF00BF4FF0A041F1
:10370000084600F5E06151F82710C1F3014900BFF8
:1037100008A9384605F08DFF8346BBF1000F02D0A3
:10372000B9F1020F05D0BBF1000F1BD1B9F1030FA6
:1037300018D1BAF1030F0FD1B9F1020F01D1032053
:1037400000E0022001903846019906F0F1FE06984B
:10375000401CC0B2069000BF029818B151463846CE
:10376000029A904700BF00E036E000BF641C042CC2
:103770008DD3069858B3012703AA0121002006F033
:1037800025FF00250AE003A850F8250008A951F8F4
:103790002510884201D0002702E06D1C002DF2D0D8
:1037A00000BF17B10020069010E000250CE003A830
:1037B00050F8250008A941F8250005A850F8250073
:1037C00004A941F825006D1C002DF0D000BF06981B
:1037D00000287FF458AF00BF09B0BDE8F08F0000AB
:1037E00004630040106500403C34002000F01F02DC
:1037F00001219140024A430942F82310704700001A
:1038000080E200E000F01F02012191404209920095
:1038100002F1E022C2F800117047000000F01F0220
:1038200001219140024A430942F8231070470000E9
:1038300000E200E010B5002807DA4A07140E054A36
:1038400000F00F031B1FD45403E04A07130E024A73
:10385000135410BD18ED00E000E400E010B54FF483
:10386000807005F06FFF60B14FF4807005F073FF5A
:10387000012005F079FF01200B494870002002F07B
:1038800027FF4FF4827005F05DFF58B14FF482704E
:1038900005F061FF022005F067FF012002498870F2
:1038A00002F016FF10BD0000D833002010B5002034
:1038B0000949086000210948C0F84411C0F84811BE
:1038C000C0F84C1100200549C1F8000102493C39FB
:1038D00008600BF099FD10BD40110140001001403F
:1038E00010B500F0DBFA10BDF8B504460D461646DB
:1038F00000BF0B48007808B900F0D0FA00BF0020E4
:103900000090684601F0D6F832462946204600F07D
:1039100009F807469DF8000001F0D2F83846F8BDD6
:10392000443C00202DE9F047074688461646C2462B
:1039300007EB47011B4800EBC109D9F8140020B17F
:10394000012811D0022826D11EE0484600F0DEFAF8
:103950000546B54201D2002405E0344632465146C0
:10396000484600F028FC18E0484600F0CFFA05462B
:10397000B54201D2284600E0304604462246514670
:10398000484600F018FC08E032465146484600F030
:10399000D9FB044601E0002400BF00BF2046BDE87B
:1039A000F08700005C3C00200FB438B5044606A840
:1039B00000906A462046059900F007F80546002069
:1039C0000090284638BC5DF814FB2DE9F04F99B003
:1039D00082460D46144603A81490402015900020FE
:1039E0001690CDF860A0179000BF2E786D1C06B918
:1039F000DDE0252E79D100274FF0010900BF2E7898
:103A0000232E12D02B2E0CD02D2E02D0302E10D1E2
:103A100003E047F001076D1C0EE047F002076D1C44
:103A20000AE047F004076D1C06E047F008076D1C2C
:103A300002E04FF0000900BF00BFB9F1000FDED176
:103A40004FF0000800BF2E78302E01DB392E00DD4C
:103A500007E06D1CA6F1300008EB880100EB41087F
:103A6000F1E700BF002013902E782E2E12D16D1C8E
:103A700000BF2E78302E01DB392E00DD09E06D1CF1
:103A8000A6F13000139901EB810100EB4100139086
:103A9000EFE700BF2E7800BF6C2E01D0682E02D158
:103AA0006D1C2E7800E000E0F6E700BF702E5DD0C0
:103AB00008DC252E6AD0582E35D0632E09D0642E0E
:103AC00069D113E0732E3CD0752E1DD0782E62D1B3
:103AD00028E02168081D2060D1F8009009F0FF0B54
:103AE000594614A800F00CFB56E058E02168081D68
:103AF0002060D1F80090CDE900870A22494614A839
:103B0000139B00F011FA47E02168081D2060D1F8EE
:103B10000090CDE900870A22494614A8139B00F0C3
:103B200079FA39E000BF2168081D2060D1F80090C3
:103B3000CDE900871022494614A8139B00F06AFAC9
:103B40002AE02168081D2060D1F800B000BF9BF872
:103B500000600BF1010B06B906E0314614A800F035
:103B6000CFFA17980028F2DA00BF15E02168081D87
:103B70002060D1F80090002008210B461022CDE9EA
:103B80000010494614A800F045FA05E0252114A8C4
:103B900000F0B6FA00E000BF00BF6D1C03E0314644
:103BA00014A800F0ADFA17980028BFF61EAF00BFAA
:103BB000179800280ADD169820B103A95046169AD6
:103BC000FFF792FEDDE9161008441790179819B018
:103BD000BDE8F08F10B50BF021FB10BD10B507F05C
:103BE000EFFB10BD01480249086070470090D00308
:103BF000D828002010B503F097F828B18E48008827
:103C0000C0F304208D49086003F0E2F810B18C483D
:103C10008C49486703F0F4F830B18748E038006811
:103C2000C0F342308849086003F014F928B187488E
:103C3000006820F080708549086003F023F948B1DE
:103C40000020834908604FF08041C1F810017E498F
:103C5000091F086003F040F918B103207A49643164
:103C6000086003F051F968B105207A490860012025
:103C700078497831086000207649083108603F2093
:103C8000091F086003F058F9002855D06A48E03051
:103C90000068714908606848E4300068091D0860E0
:103CA0006548E8300068091D08606348EC3000682A
:103CB000091D08606048F0300068091D08605E4812
:103CC000F4300068091D08605B48F83000686249FC
:103CD000203108605848FC300068091D08605F48C2
:103CE0000068091D08605D48001D0068091D086026
:103CF0005A4808300068091D086058480C300068B0
:103D0000091D08605548103000685349403108606B
:103D1000524814300068091D086050481830006887
:103D2000091D08604D481C300068091D08604B489B
:103D300020300068091D086002F0CCFF30B13E4819
:103D4000CC38006800F04F004549086003F016F8D1
:103D500040B14448006800F0010018B16FF0010064
:103D60004049086039487438006840F470003749A9
:103D70007439086000BF00BF00BFBFF34F8F00BFA2
:103D800000BF00BF00BF00BF00BFBFF36F8F00BF09
:103D900000BF00BF3448006800F0004028B9324836
:103DA000001D006800F00040F0B301202F490860BA
:103DB00000BF2F4800680028FBD015202A49086062
:103DC00000BF2B4800680028FBD015212648001DA5
:103DD000016000BF264800680028FBD0002023496E
:103DE000086000BF224800680028FBD000BF00BF69
:103DF00000BF00BF00BFBFF34F8F00BF00BF00BFB9
:103E00001248F038006800F4E0601A490843001DC9
:103E10000E49F039086000BF00BF00BFBFF34F8FED
:103E200000BF00BF00BF00E002E000BF00BFFDE731
:103E3000FFF7D8FE10BD00002403001040350140FC
:103E40000DF0ADBA00C007403C050040FCED00E0BD
:103E50000C0100401056004020C500402404001012
:103E6000E40E0040000400400012001004E5014090
:103E700000E401400000FA0510B50648007F20B1BB
:103E8000044905480BF0B1FD03E0024902480BF07C
:103E90000BFD10BD443400200020004010B5124C32
:103EA00002202061606111A0A0611349E1614FF41B
:103EB000007121620021A1626162E1620BA0A06435
:103EC0000E49E164102121650021A1656165E1656C
:103ED0000BA1E01DFFF708FB0AA12046FFF704FB3A
:103EE0002020A07110BD0000443C00205465726D7C
:103EF000696E616C00000000BC3C0020BC3E0020EC
:103F000052545400534547474552000010B50146EE
:103F10000A69CB689A4204D88C68641EE41AA01817
:103F200001E0D41A601E10BD2DE9FC5F06460F4665
:103F300092469846DDE90C45002F01DA784200E010
:103F4000384683464FF0010903E09BFBFAFB09F179
:103F50000109D345F9DAC84500D9C14634B1002F6B
:103F600003DB05F00400042800D1641E05F0020004
:103F700010B1B8F1000F11D005F0010070B96CB1AB
:103F800008E0641E2021304600F0BAF8F0680028EE
:103F900000DA02E00CB1A145F3D300BFF0680028BD
:103FA00036DB002F05DA7F422D21304600F0A8F8DD
:103FB00007E005F00400042803D12B21304600F06F
:103FC0009FF8F068002823DB05F00200022814D1D6
:103FD00005F0010088B9B8F1000F0ED16CB108E00E
:103FE000641E3021304600F08BF8F068002800DABB
:103FF00002E00CB1A145F3D300BFF068002807DB55
:104000004346524639463046CDE9004500F002F8B5
:10401000BDE8FC9F2DE9FC5F8046894615461E469B
:104020000C9CCDF804900127BB4605E00198B0FB3D
:10403000F5F001900BF1010B0198A842F6D25E4514
:1040400000D9B3460D9800F00100D0B9CCB10D985D
:1040500000F00200022803D116B93020009001E0E0
:104060002020009009E0641E4046009900F048F8C6
:10407000D8F80C00002800DA02E00CB1A345F2D316
:1040800000BFD8F80C00002835DB09E0012E01D96B
:10409000761E04E0B9FBF7FAAA4500D201E06F43AF
:1040A000F4E700BF00BFB9FBF7FA0AFB1799134802
:1040B00010F80A10404600F023F8D8F80C00002849
:1040C00000DA03E0B7FBF5F7002FECD100BF0D9845
:1040D00000F0010078B174B109E0641E202140466F
:1040E00000F00EF8D8F80C00002800DA02E00CB15D
:1040F000A345F2D300BFBDE8FC9F00000805030004
:1041000070B504460E46A568681C6168814206D3F6
:1041100020684655681CA060E068401CE060D4E957
:10412000011088420DD1A26821682069FFF7DCFBED
:10413000A168884203D04FF0FF30E06001E000202A
:10414000A06070BD2DE9F0470446894617464FF040
:10415000000AE56800BFD4F81080A84503D9A8EB91
:104160000500461E04E0A5EB0800401CA1680E1ADD
:10417000A068401BB04201D9304601E0A068401B56
:104180000646BE4201D2304600E038460646616827
:10419000481932464946FFF76FF9B244B144BF1B94
:1041A0003544A068A84200D10025E560002FD2D197
:1041B0005046BDE8F0872DE9F0470446894615468C
:1041C000E668A068871BAF4208D9616888192A464B
:1041D0004946FFF751F97019E06010E0B846616890
:1041E000881942464946FFF747F9A5EB070809EB4E
:1041F000070142466068FFF73FF9C4F80C80BDE84C
:10420000F08702E008C8121F08C1002AFAD17047DF
:104210007047002001E001C1121F002AFBD1704746
:104220000146202908DA012088400A4A104008B1D6
:10423000012070470020FCE7402909DAA1F12000A5
:10424000012202FA00F008B10120F2E70020F0E7B5
:104250000120EEE7FC06FFBD00BFEFF3108108462A
:1042600072B6704770B505460C4605B10CB9002012
:1042700070BD287840082178B0EB510F01D00020A4
:10428000F6E70622611C681CFFF721F908B9012036
:10429000EEE70020ECE7014601F0030008B9012039
:1042A00070470020FCE70246002104E0505C08B1A2
:1042B00001207047491C0629F8D30020F9E710B502
:1042C0000346D868884206D88818401E1C69A04258
:1042D00001D8012010BD0020FCE7000010B5044605
:1042E0006CB10848C068A04209D806480069A042DD
:1042F00005D3204604F043FB08B1012010BD002087
:10430000FCE70000DC28002070B504460D4604F1EF
:104310002600FFF7C8FF0646012D06D0022D0AD061
:10432000032D0ED0042D16D110E0A07910B10EB1DE
:10433000012070BD00BFE07910B10EB10220F8E796
:1043400000BF207A08B10320F3E700BF607A08B10C
:104350000420EEE700BF0020EBE70146481C0522E1
:1043600090FBF2F302FB1300C0B270470146C8781D
:1043700000F0040008B9072070470020FCE710B5E2
:1043800001220221002001F01BFE044600BF1CB1E7
:10439000072C01D0204610BD00BF072202210120BA
:1043A00001F00EFE044600BF1CB1072C01D02046D0
:1043B000F1E700BF0A220021084601F001FE044691
:1043C00000BF1CB1072C01D02046E4E700BF00204D
:1043D000E1E7000030B5A9B0A02101A8FFF765F81A
:1043E00002208DF8040001208DF8060006208DF8CB
:1043F00007000120ADF814001149069101218DF844
:1044000080104FF496712391B42124910D48279088
:1044100001A90D4800F0D5FD044600BF25463DB179
:1044200000BF0AA240F2BB31284600F005F900BFE8
:1044300000BF0121044800F0C1FD29B030BD0000DB
:104440008027002009B70200982900202E2E5C2E1C
:104450002E5C2E2E5C6D61696E2E630070B5044675
:10446000012C02D102F0EAFA11E00321084800F021
:10447000ADFE054600BF2E463EB100BF05A240F28C
:10448000F531304600F0D8F800BF00BF00BF70BD66
:10449000982900202E2E5C2E2E5C2E2E5C6D6169DC
:1044A0006E2E630070B58CB004460D461646002093
:1044B00005E0C0F10F01615C0DF80010401C1028F0
:1044C000F7D30D2104A8FEF7F0FF002005E02A5CD9
:1044D000C0F10F0304A9CA54401C0328F7D368464F
:1044E00043DF002005E0C0F10F0208A9895C3154C8
:1044F000401C0328F7D30CB070BD10B50446022051
:1045000001F0FCFB10BD000010B5002407E00749D6
:10451000096811F83400012105F008FA641C044808
:1045200000788442F3D3002010BD0000142800203E
:10453000182800202DE9F84306460C461746052F9B
:1045400002D20720BDE8F88305F0EEFA38B905F08D
:10455000BBFA054600BF0DB12846F3E700BF164879
:104560000660164804701648076000201549086068
:104570001549086015E006EBC4081448006800906F
:1045800098F802008DF8010098F80000104A69467A
:1045900005F022FA054600BF0DB12846D2E700BF5C
:1045A00000BF201EA4F10101CCB2E4D1094A0021D0
:1045B000094800F013F9C5E7142800201828002046
:1045C0001C28002020280020242800205803030055
:1045D000457F0200E16A02005403030070B50446FF
:1045E0000D46164610490988012242EA01400FA1F2
:1045F00006F066FA00BF06F065FB00BF00BF06F0DC
:1046000025F90028FBD100BF00BF00BF09480068A2
:1046100000F0010000B100BE00BF3246294620462E
:1046200000F01AF870BD000038290020466174615E
:104630006C000000F0ED00E0FEB504460E461546A5
:10464000B0B2ADF80000019502946A46002144F230
:104650000100FFF7C3FFFEBD18B5012300939DF8CD
:1046600000301E4B186059609A606FF48043034419
:1046700063B1012B19D1194BDA60DB681B88174C29
:10468000A3612346DB685B68E3610EE0134B1A61AC
:104690001B699B68114C636123461B691B88A361DE
:1046A00023461B695B68E36100BF00BF0B4B1B68BF
:1046B0000A4B5B68094B9B68084BDB68074B1B691F
:1046C000064B5B69054B9B69044BDB6972B600BF07
:1046D0009DF80030002BFBD162B618BD8434002059
:1046E00070B504460D46204603F01AF828B1294655
:1046F000204603F009F8002070BD0520FCE70346C2
:1047000009B90E20704712B1501E104008B109209F
:10471000F8E71960501E988000209860D86000BFAC
:10472000F0E770B504460D46204602F0F9FFA18877
:10473000884205D82946204603F005F8002070BDC0
:104740000420FCE710B50446022C08D10A49098868
:10475000032242EA014009A106F0B2F901E001207A
:1047600010BD00BF04490988032242EA01400FA19D
:1047700006F0A6F90120F3E738290020506F77658D
:1047800072206D616E6167656D656E742077616E14
:10479000747320746F20726573657420746F204485
:1047A0004655206D6F64652E00000000506F7765E0
:1047B00072206D616E6167656D656E7420616C6CF1
:1047C0006F77656420746F20726573657420746FF1
:1047D00020444655206D6F64652E000010B50346D9
:1047E0000C4600BF0B48807808B9082010BD00BFF8
:1047F0000AB90720FAE70BB90720F7E71868007C29
:1048000008B10820F2E71968002008744C744A6166
:1048100000BFEBE7A434002010B509F063FB0020D3
:104820000F49087048700B20887000200D490860FF
:104830000D4908700D4908701420FEF7D7FF0721B5
:104840001420FEF7F7FF1420FEF7DCFF002009F02C
:104850001FFB09F017FB06490860002010BD00008F
:10486000A4340020282800203828002039280020DF
:104870002C2800202DE9F04104460E461746254617
:1048800000BF1048807810B90820BDE8F08100BF53
:104890000CB90820F9E7052E01D20720F5E7686971
:1048A00008B90820F1E7687C012801D1304600E012
:1048B000002080463B464246314628460AF054FDD9
:1048C000E3E70000A434002070B50446254600BF8D
:1048D0000848807808B9082070BD00BF0CB168692D
:1048E00008B90820F8E700202874022128460AF0B9
:1048F0006AFDF1E7A43400202DE9F0410446104898
:10490000077821460F48FFF7EBFE8046A7B100204D
:104910000B49087001220C490C4805F05BF905466B
:1049200000BF2E4636B100BF09A2D5213046FFF7A1
:1049300083FE00BF00BF00BF4046BDE8F08100001D
:104940007A28002004370020792800206C280020D5
:104950002E2E5C2E2E5C2E2E5C2E2E5C2E2E5C2E91
:104960002E5C636F6D706F6E656E74735C6C6962E4
:104970007261726965735C756172745C6170705F9D
:10498000756172745F6669666F2E63002DE9F04190
:1049900088B004460D46174698462E4807601DB954
:1049A000072008B0BDE8F081A88882B22A482968AB
:1049B000FFF7A5FE064600BF0EB13046F1E700BF87
:1049C000A88982B22548A968FFF799FE064600BF6C
:1049D0000EB13046E5E700BF202221496846FEF7C8
:1049E0004BFD60690690207C08B1012000E00020AA
:1049F0008DF814008DF81C80607C08B10E2000E05A
:104A000000208DF81500E0680290A06803902068EF
:104A1000019060680090134A6946134805F098F8C1
:104A2000064600BF0EB13046BBE700BF00200F496D
:104A300008702068401C58B19DF81D0010B90A4844
:104A400005F032F901220A49074805F0C3F8A8E742
:104A50000020A6E774280020043700201437002027
:104A6000C804030065F702006C2800207A280020A3
:104A70007928002070B5044621460B48FFF751FE07
:104A8000054675B9094805F0A9FA50B9084906481C
:104A9000FFF726FE28B901220549044805F0E8F988
:104AA0000546284670BD0000143700206C28002001
:104AB0007828002010B50446204609F06FFB10BD91
:104AC00070B5044625460E488068B0B1ADB9FFF711
:104AD000C3FB06460A4800680A490860084840685F
:104AE0004FF0E021C1F804010020054988601EB99B
:104AF00000BF62B600BF00BF00BF00BF70BD0000B6
:104B0000B035002000E100E0F8B505460C46174638
:104B10002088001DB84201D90C20F8BD684679DF15
:104B2000064600BF0EB13046F7E700BF03202188DC
:104B300068542088401C20801920218868542088CF
:104B4000401C208020884119BDF800000AF0D9FFE0
:104B50002188084420800020DFE7704770B50546B3
:104B60000C462068401C28B1206805F006FD20682E
:104B700005F0B9FC6068401C18B10021606805F0C0
:104B8000A5FC28792D4901EB4010007F50B328681F
:104B9000A169C0F8241500BF617D227D286841EA23
:104BA0000203C0F86C3500BFD4E90012286806F093
:104BB00047FD207D01283FD1A068401C18B100218D
:104BC000A06805F083FCE068401C28B1E06805F0AF
:104BD000D4FCE06805F087FCD4E90221286806F0DF
:104BE0001BFD29E02868A169C0F8241500BF617D7C
:104BF000227D286841EA0203C0F86C3500BFD4E981
:104C00000012286806F0EFFC207D012814D1A0686E
:104C1000401C18B10021A06805F058FCE068401C59
:104C200028B1E06805F0A9FCE06805F05CFCD4E977
:104C30000221286806F0C0FC70BD0000443400204A
:104C400030B5A3B01348007800F0F4FB05462846C1
:104C500009F046FBD8B101A800F09AFB442201A953
:104C600012A8FEF709FC00240DE013A931F8140086
:104C70000849097800F0ECFB20B113A931F81400C1
:104C800004F03AF9641C1298A042EED800BF23B099
:104C900030BD0000B627002010B50446637903F04C
:104CA00003022179208804F013F810BD10B50446E2
:104CB000207918B9204600F007F803E02046FFF7F6
:104CC000EBFF00BF00BF10BD2DE9F04188B00446E6
:104CD0000025208800F080FB0746208803F010FCA8
:104CE0000646A0680790607A069020880022234933
:104CF000097800F0C1FB17B908B0BDE8F081607910
:104D0000C0F3800090B10721304607F04DFC054606
:104D1000BDB108208DF800002088ADF80200ADF884
:104D200004600295684602F00BFA0AE020881449F4
:104D3000097800F08DFB20B1304603F0CBFB8046B4
:104D400000BF03208DF80C002088ADF80E006079BC
:104D5000C0F380008DF81000A079C0F380018DF8B9
:104D600011109DF81C108DF812109DF818108DF878
:104D7000131003A802F0E4F900BFBDE7F6270020F6
:104D8000F8270020002112E00B48D0F8102401235E
:104D900006E000BF107A884201D1002302E0526889
:104DA000002AF6D100BF0BB108467047491C0A29FA
:104DB000EADB4FF0FF30F8E7243800202DE9FC4112
:104DC000044688461646002537880020308094F82F
:104DD0002D0058B13A463146404600F061FB054689
:104DE00000BF15B12846BDE8FC8100BFA07850B1D6
:104DF0003A4631464046FFF787FE054600BF0DB1F3
:104E00002846F0E700BFE07860B1E17848B23B4661
:104E10003246414602F0FAFC054600BF0DB1284675
:104E2000E1E700BF606868B1616891F900003B4646
:104E3000324641460AF012FC054600BF0DB1284635
:104E4000D1E700BF208900280EDD4346062202215B
:104E500004F10800CDE900670AF05AFF054600BFDB
:104E60000DB12846BFE700BF208A00280EDD43466B
:104E70000722032104F11000CDE900670AF048FF82
:104E8000054600BF0DB12846ADE700BF208B0028C6
:104E90000EDD43461522142104F11800CDE9006708
:104EA0000AF036FF054600BF0DB128469BE700BF5C
:104EB000206A58B13B4632464146206A01F095FCD3
:104EC000054600BF0DB128468DE700BF606A58B1A6
:104ED0003B4632464146606A04F0C4F9054600BFCD
:104EE0000DB128467FE700BF94F82C0000280BDDA9
:104EF0003B4632464146204609F0ECFC054600BFE1
:104F00000DB128466FE700BF207858B13B463246C6
:104F10004146204604F056FA054600BF0DB128462A
:104F200061E700BF28465EE72DE9F04192B0804678
:104F30000D461F2011901090B8F1000F17D0404679
:104F4000FFF714FA044600BF1CB1204612B0BDE8BA
:104F5000F08100BF11AA08A94046FFF72FFF0446C1
:104F600000BF0CB12046F1E700BF08AE02E000260A
:104F700000201190ADB128460AF096F8044600BF13
:104F80000CB12046E2E700BF10AA69462846FFF7A9
:104F900015FF044600BF0CB12046D7E700BF6F469F
:104FA00002E0002700201090BDF84000C3B2BDF819
:104FB0004400C1B23A46304672DFC7E780F8241099
:104FC000704770B504460D4605B10CB90E2070BD92
:104FD000012020700020E070202205F17801201DC2
:104FE000FEF74AFA00208C3404F8680CD5F89800D3
:104FF0002064D5F89C0060644FF6FF70A087673C82
:1050000000202060A080A071253C3C2104F13000EC
:10501000FEF74BFA287884F83000A9783220015541
:10502000E97833200155697831200155D5E904121A
:10503000C4E91012D5E90212C4E90E12D5E906122C
:10504000C4E9121295F82D1084F85D10686AD0B189
:1050500004F16C00606504F178016167686A018899
:10506000606D0180686A8188606D8180002006E043
:10507000696A89680A5C04F178010A54401C616D10
:1050800089888142F4D8A86A10B304F1A401C4F855
:10509000A01004F19800A0650C30A16D8860A86A8A
:1050A0008188A06D8180A86A0188A06D01800020A0
:1050B00006E0A96A89680A5C04F1A4010A54401C4C
:1050C000A16D89888142F4D895F82C1084F85C1081
:1050D000286A50B104F1C4002065286A4188206D17
:1050E0004180286A0188206D0180686808B169687C
:1050F000616305F13C0104F13000FFF715FF06463E
:10510000304664E770B504460D462E4620881028C8
:1051100004D0112807D01B280FD109E021463046C2
:1051200006F08FFB0AE02146304606F085FC05E0DC
:105130002146304606F096FD00E000BF00BF70BD7E
:105140002DE9F04105460E463446022D02D0032DCE
:1051500014D100E000BF607878B100206070E17881
:10516000204600F033F8074637B1D4F8D00018B124
:105170003846D4F8D010884700BF00E000BF00BF19
:10518000BDE8F08170B5044674DF012084F8D400D6
:10519000002084F8D600062133200155002104F1B7
:1051A0003000FFF7C1FE05460DB1284670BDE1781D
:1051B000204600F00BF8054635B1D4F8D00018B100
:1051C0002846D4F8D01088470020EFE77FB5044682
:1051D0000E46207810B9082004B070BDE67002F0C9
:1051E0007FFB18B1012060700020F5E7002044F833
:1051F000250FA080A071253CA07910B1E07801288E
:1052000009D0E07910B1E078012804D0E07980B1CC
:10521000E07802280DD1D4F8CC0038B1012084F810
:105220002C000820D4F8CC10884702E0002084F835
:105230002C0031462046FFF767F8E070D4F8CC0028
:10524000A0B1E078032802D0E07804280ED160797C
:1052500060B194F8D40048B90020CC34A072012089
:10526000607254F8CC190720884702E0002084F8C7
:10527000D500002000900190029003908DF800006E
:105280008DF80800E07805281FD2DFE800F01B0346
:10529000090F15006946204609F08CFB054615E00C
:1052A0006946204609F092FB05460FE06946204614
:1052B00009F09AFB054609E06946204609F0B9FB6A
:1052C000054603E00020A07000E000BF00BFE078CA
:1052D00038B194F82410684673DF05460DB12846AE
:1052E0007AE7D4F8CC0018B1A078D4F8CC1088476D
:1052F000002071E72DE9F041044600BF14B90E20EB
:10530000BDE8F08100BF1C2221461C48FEF7B4F81E
:105310001B481A490860206860B120687ADF05469A
:105320000DB12846ECE7164821680A680260496812
:10533000416005E012487BDF05460DB12846DFE7F6
:10534000002617E006EB86000E4901EB800700BF40
:105350004FF6FF70388000BF0B4800EB46107860B6
:105360000A4A0021381DFFF739FA05460DB103201E
:10537000C6E7761C002EE5D00020C1E7042E0020F1
:10538000A8270020F02D0020D02D002025FC0200B1
:1053900010B504460348011D426C204609F01CF874
:1053A00010BD0000202E002010B504460348224600
:1053B000016D001D08F0F9FF10BD0000202E002037
:1053C00010B5044603482246416D001D08F0EDFF6C
:1053D00010BD0000202E002070B5044600250B48AB
:1053E0002246416C001D08F0E0FF60B107482246EC
:1053F000C16C001D08F0D9FF06460EB1022000E086
:105400000120054600BF284670BD0000202E002068
:1054100010B500240AE020460AF048FC20B92046D6
:105420000AF03AFC204610BD601CC4B2182CF2DB16
:105430001820F8E710B5044620460AF037FC18B1EA
:10544000024850F8240010BD0020FCE7782E002010
:1054500070B505460C4620460AF028FC38B10548D0
:1054600050F824102A46543808F09FFF70BD0020E1
:10547000FCE70000782E002070B505460C46164665
:1054800020460AF013FC38B1044800EB840133468F
:105490002A46543808F0C1FF70BD0000782E002065
:1054A0002DE9FC4105460C46174620880930B842D4
:1054B00002D90C20BDE8FC8168466DDF064600BFBE
:1054C0000EB13046F6E700BF0820218868542088D6
:1054D000401C20801B20218868542088401C20808C
:1054E00020882844DDF801100160BDF80510818096
:1054F0002088801D20809DF80000400818B90020F9
:105500002188685402E00120218868542088401CCA
:1055100020800020CEE7000010B54FF0FF310020C2
:105520003BDF044600BF0CB1204610BD00BFB121D7
:1055300000203ADF044600BF0CB12046F5E700BF6B
:105540000448416901208847022005F00BFD002036
:10555000EBE700009433002010B50548006841696E
:1055600000208847FFF7D8FF0446204610BD000002
:105570001028002070B504460D4600BF04B970BD68
:1055800000BF2088502816D004DC102807D011282E
:1055900019D108E051280AD0532814D10FE0204631
:1055A00006F046F910E0204606F034FA0CE02046FA
:1055B00006F036FB08E0204606F09CFB04E020469F
:1055C00006F0D8FA00E000BF00BF00BFD7E7000038
:1055D00070B504460426207B012802D002281ED183
:1055E00005E001F023FB054605B9012619E0607BC3
:1055F000142801DC607B08B905260FE0627B04F10A
:105600000E010F48FDF738FF607B0D49091F8861C7
:10561000084609F033FA054605B9012601E00226DD
:1056200000BF00BF012E0AD0207B314600F04CF8AD
:10563000054625B10348006841690320884770BDCD
:10564000C03300201028002070B505460E4600BF6C
:105650001B48006820B11A48406808B1012000E0EA
:10566000002000B970BD00BF154800F10801426874
:1056700028469047044600BF112C1FD07CB900205B
:105680001049096888760121022000F01DF80446BF
:10569000A4B10C4800684169032088470EE000204F
:1056A0000849096888760421022000F00DF80446B4
:1056B00024B10448006841690320884700BFD1E74E
:1056C000B033002010280020F0B587B004460D4606
:1056D000032700200190029003900490032006907D
:1056E00020208DF814008DF81540E8B28DF81600D2
:1056F0000D48C088ADF8040002208DF80600002097
:10570000ADF8080006A8039005A80490064988880B
:1057100001A9A6DF064626B9BDF81800032800D067
:105720000C26304607B0F0BD94330020F0B589B0A8
:1057300005460F4600242888212833D006DC01289E
:1057400065D010281AD0112872D106E03B283CD031
:1057500051286FD05628F7D148E0002000F05EFCB9
:10576000044600BF26463EB100BF4EA240F2E521EE
:105770003046FEF761FF00BF00BF8FE0072000F05A
:105780004DFC044600BF26463EB100BF45A240F294
:10579000EA213046FEF750FF00BF00BFA888454908
:1057A00008807BE000200890A88808A98FDF0446C5
:1057B00000BF26463EB100BF3AA24FF43E713046CC
:1057C000FEF73AFF00BF00BF68E0A888132176DF2C
:1057D000044600BF26463EB100BF32A240F201316E
:1057E0003046FEF729FF00BF00BF57E0A88813210D
:1057F00076DF044600BF26463EB100BF29A240F234
:1058000009313046FEF718FF00BF00BF46E0A88808
:10581000002166DF044600BF26463EB100BF21A23C
:1058200040F20E313046FEF707FF00BF00BF35E003
:1058300033E0FFE71022A91D05A8FDF71DFE9DF826
:10584000140048B39DF81C00042807D09DF81C00E4
:10585000062803D09DF81C0005281DD19DF81400D2
:10586000022802D18DF8040002E001208DF8040026
:105870004FF4C170ADF80800A88801A9A8DF04465C
:1058800000BF26463EB100BF06A240F22931304695
:10589000FEF7D2FE00BF00BF00E000BF00BF09B0AE
:1058A000F0BD00002E2E5C2E2E5C2E2E5C6D6169EC
:1058B0006E2E63007227002070B505460E462888BC
:1058C000102802D011282CD115E01748006860B9C3
:1058D00001F062F8044600BF34B11448006818B102
:1058E000204612490968884700BF0F480068401CDD
:1058F0000D49086016E00C480068401E0A4908601F
:105900000846006860B9FEF73AFD044600BF34B1AE
:105910000648006818B1204604490968884700BF56
:1059200000E000BF00BF70BDA4270020A02700201A
:1059300070B504460D462088102806D0112808D0DE
:1059400012280ED0502810D107E0204605F038FF6D
:105950000CE0204606F044F808E0204606F09EF9E8
:1059600004E0204605F014FF00E000BF00BF70BD5A
:1059700070B504460E462088102804D011281FD088
:105980001A2842D120E008F027FAA08808F09EF8F3
:1059900030B900BF1EA2E5210420FEF74DFE0EE047
:1059A000E07B022801D1012000E000200546A2880A
:1059B0002B462649A1F1480008F02FFD00BF24E046
:1059C000A08808F02BFA20E0207A0121B1EB101F0B
:1059D00001DA012000E000200346A2881B49091DCE
:1059E000A1F14C0008F019FD207A0221B1EB101F43
:1059F00001DA012000E000200346A28813490831A3
:105A0000A1F1500008F009FD00BF00BF70BD00000B
:105A10002E2E5C2E2E5C2E2E5C2E2E5C2E2E5C2EC0
:105A20002E5C636F6D706F6E656E74735C626C6517
:105A30005C636F6D6D6F6E5C626C655F636F6E6EE5
:105A40005F73746174652E63000000006C2E00208B
:105A500070B504460D4600BF0748007800B970BD18
:105A600000BF204602F00EFC204609F0C1F8204697
:105A700002F03CF900BFF2E7E427002070B586B0E1
:105A800004460E46214B0FCB01AD0FC500BF14B924
:105A90000E2006B070BD00BF00BF0EB90E20F8E7A3
:105AA00000BF4FF6FF70A0823068A0610020A07593
:105AB000214601A862DF054600BF0DB12846E8E790
:105AC00000BF20788DF816000120ADF81400A21C4C
:105AD00005A9A0DF054600BF0DB12846D9E700BFE4
:105AE0003146204608F049FA054600BF0DB1284668
:105AF000CFE700BF3146204609F005FD054600BF4F
:105B00000DB12846C5E700BF0020C2E7C805030065
:105B10007FB504460E4606B104B97FBD35462088E0
:105B2000102806D011280DD0502814D0572828D17D
:105B30001AE02146284605F081FE14A10020FDF759
:105B400033FF1FE02146284605F072FF13A1002015
:105B5000FDF72AFF16E02146284606F0FDF813A1BE
:105B60000020FDF721FF0DE0144B0FCB8DE80F0057
:105B700001956846A969884711A10020FDF714FF27
:105B800000E000BF00BF00BFC7E70000636F6E6E9C
:105B90006563746564090A0D00000000646973633D
:105BA0006F6E6E6563740A0D00000000626C652004
:105BB0002D3E20756172740A0D000000B8050300C7
:105BC00075617274202D3E20626C650A0D00000024
:105BD0007FB504460E46154600BF14B90E2004B02A
:105BE00070BD00BFA08A4FF6FF71884201D0A07D32
:105BF00008B90820F3E72888F42801DD0720EEE73C
:105C000000200090019002900390A088ADF8000061
:105C10000396029501208DF80200A08A6946A6DF4E
:105C2000DDE770B50446204609F065FF0546C5F37B
:105C3000400070BD70B50446204609F05CFF054683
:105C400005F0010070BD000038B505F07DFB04468D
:105C500000BF25463DB100BF15A240F23E312846A7
:105C6000FEF7EAFC00BF00BF00200090694601205B
:105C700005F0B4F9044600BF25463DB100BF0CA2B3
:105C80004FF451712846FEF7D7FC00BF00BF6846AD
:105C900005F06EFA044600BF25463DB100BF04A2E0
:105CA0004FF452712846FEF7C7FC00BF00BF38BD55
:105CB0002E2E5C2E2E5C2E2E5C6D61696E2E630086
:105CC00001460148405C70474402030010B501469C
:105CD000094B585C00BF4FF0A044234600BFD3F8E7
:105CE0001045C44004F001040CB1012000E0002084
:105CF000024682F0010010BD4402030010B50246C6
:105D00000949885C00BF4FF0A0442146D1F8043512
:105D1000012484409C43C1F80845012484401C4070
:105D2000C1F80C4500BF10BD4002030010B5044689
:105D30000249085D012104F02BFC10BD4002030064
:105D400010B504460249085D002104F021FC10BD95
:105D50004002030010B50146094B585C00BF4FF0EC
:105D6000A044234600BFD3F80445C44004F0010416
:105D70000CB1012000E00020024682F0010010BDBD
:105D8000400203007CB500240CE00948055D0020BA
:105D900000900346012211460190284604F05AFB68
:105DA00000BF641C042CF0D300F004F87CBD00009C
:105DB0004002030010B5002403E02046FFF7B6FFC1
:105DC000641C042CF9D310BD10B5002403E0204658
:105DD000FFF7B6FF641C042CF9D310BD02464FF048
:105DE000FF30002106E0054B5B5C934201D1084681
:105DF00002E0491C0429F6D300BF704744020300A7
:105E000070B505460C4600260648056014B12046CC
:105E100009F051F90448006810B9FEF7B0FA0646D7
:105E2000304670BDA0270020A427002010B5002018
:105E300000F018FB044600BF1CB1062C01D0204620
:105E400010BD00BF012000F00DFB044600BF1CB1D7
:105E5000062C01D02046F3E700BF0020F0E7000049
:105E60002DE9F04106460F464FF000080024304669
:105E7000FFF7B4FF0446042C3ED20FB3012F02D02B
:105E8000022F38D130E004EB4400214911F80080A2
:105E900004EB44000844407850B11E4A4FF40041DE
:105EA0001D480068FEF7E6FC05460DB91948067066
:105EB00004EB4400164908448078184908551AE054
:105EC00015480068FEF700FD1448005D04EB44012E
:105ED0000F4A11448978884205D104EB44001146E9
:105EE000084490F8028006E004EB440008490844A6
:105EF00090F8018000BF00BFB8F1000F06D008483D
:105F0000006818B14046064909688847BDE8F08135
:105F1000A42D00209827002050020300992700207C
:105F20009427002010B504462046FFF7CFFE10BD91
:105F300070B50546042D06D0072D18D00A2D2FD197
:105F400008F01EFE2DE013211748008876DF044676
:105F5000082C0BD000BF26463EB100BF13A24FF461
:105F600064713046FEF768FB00BF00BF19E00E48C1
:105F700000884FF6FF71884211D11048FFF702F9EF
:105F80000446082C0BD000BF26463EB100BF07A236
:105F900040F29A313046FEF74FFB00BF00BF00E0F1
:105FA00000BF00BF70BD0000722700202E2E5C2EA7
:105FB0002E5C2E2E5C6D61696E2E63009829002088
:105FC00030B503460020042B23D2012A07D1012932
:105FD00003D103F10E04E4B200E00024224679B1BB
:105FE000012902D0022911D104E003EB43040A4D38
:105FF0002A550DE003EB4304074D2C44627007E083
:1060000003EB4304044D2C44A27001E0072000BFC1
:1060100000E0072030BD0000A42D002070B504462C
:1060200000250548007800F0010018B1204600F076
:106030005BF80546284670BD8C2700202DE9F0410D
:1060400005460F4600241F4805601F48076005F0FD
:10605000020000B3002606E0012211463046FFF799
:10606000AFFF0446761C042E01D2002CF4D034B9C4
:1060700040F2666204211548FEF75CFA044614B942
:10608000FEF742FA04462CB9114A00211148FEF7E6
:10609000A5FB044600BF05F0010008B1FFF772FE42
:1060A0002CB90D4A00210D48FEF798FB04462CB987
:1060B0000B4A01210B48FEF791FB04462046BDE840
:1060C000F08100008C270020942700205402030058
:1060D0002965020050020300C5890200480203003E
:1060E000FB4402004C0203002DE9F0470446002661
:1060F0000025D748007820B10020D549087002F06B
:106100004DFC182C79D2DFE804F00C11124579AD62
:10611000F1FFEEEDECEBEAE9E8E7E6E5E4E3E2E1E6
:10612000E0DF02F03BFCCB4804708DE100BF0020B3
:10613000FFF710FE58B10020FFF7F8FD022C02D146
:106140004FF4E16001E04FF47A60054609E0002079
:10615000FFF7F6FD022C01D1C82001E04FF4C87012
:106160000546BC4804704FF40040A5FB00204FF4E6
:10617000FA73D71840F100015A0000233846FDF7A2
:1061800045F9814600224946B3480068FEF772FB94
:10619000064659E10020FFF7DDFD58B10020FFF76A
:1061A000C5FD032C02D14FF4487001E04FF47A6032
:1061B000054609E00020FFF7C3FD032C01D1C820EC
:1061C00001E04FF4C8700546A24804704FF4004047
:1061D000A5FB00204FF4FA73D71840F100015A00D4
:1061E00000233846FDF712F98146002249469A48B5
:1061F0000068FEF73FFB064626E124E10020FFF79A
:10620000A9FD58B10020FFF791FD042C02D14FF4F5
:106210007A6001E04FF47A6005460AE00020FFF75B
:106220008FFD042C02D14FF4C87001E04FF4C87008
:106230000546884804704FF40040A5FB00104FF459
:10624000FA73CF1840F100015A0000233846FDF7D9
:10625000DDF88146002249467F480068FEF70AFBC8
:106260000646F1E00020FFF775FD50B10020FFF772
:106270005DFD052C01D1C82001E04FF47A60054690
:1062800009E00020FFF75CFD052C01D1C82001E0EA
:106290004FF4C87005466F4804704FF40040A5FBEA
:1062A00000204FF4FA73D71840F100015A00002380
:1062B0003846FDF7ABF8814600224946664800683B
:1062C000FEF7D8FA0646BFE0B8E0B6E0AAE0A1E0E3
:1062D00098E092E05FE05DE05BE059E057E051E07C
:1062E00042E033E024E015E00EE0FFE70020FFF796
:1062F00005FD58480470002240F6CD41564800681C
:10630000FEF7B8FA06469FE00020FFF719FD514856
:10631000047099E001204E490870FFF7EFFC00225D
:1063200040F6CD414C480068FEF7A4FA06468BE0E3
:10633000012047490870FFF7E1FC00224FF480413B
:1063400045480068FEF796FA06467DE00120404980
:106350000870FFF7D3FC002240F6CD413E480068AC
:10636000FEF788FA06466FE0012039490870FFF70A
:10637000C5FC00224FF4804137480068FEF77AFAE6
:10638000064661E0FFF720FD324804705CE000BF84
:1063900000BF00BF00BF31480068FEF795FA06460F
:1063A000C4F1110515B30EBB012D18D9A8B2C8212F
:1063B00048434FF4004180FB01304FF4FA729F18BC
:1063C00040F10001520000233846FDF71FF88146D6
:1063D0000022494621480068FEF74CFA0646022092
:1063E000FFF7AEFC01201E49087005E00220FFF710
:1063F0009DFC00201A49087026E002F0CFFA1548EB
:10640000047021E002F0CAFA0020FFF799FC11485D
:10641000047019E002F0C2FA0120FFF791FC0D4868
:10642000047011E002F0BAFA0020FFF789FC0120A5
:10643000FFF786FC0748047006E000BFFFF7C4FCC6
:106440000448047000E000BF00BF3046BDE8F0879C
:106450008927002088270020480203004C020300FF
:106460009027002070B504462046FFF729FC05461A
:10647000032104F044F8002070BD00002DE9F84F1E
:1064800004460D46A61C02274FF00108002000908C
:106490006846FEF70FFB154800682860134800683F
:1064A00012494968411A11488068401CA0EB010953
:1064B00006EB070A0BE002F001FE0C4800680B49EE
:1064C0004968411A09488068401CA0EB0109CA4587
:1064D000F1D8064800683044044908609DF800007F
:1064E000FEF7EEFA4046BDE8F88F000024380020A1
:1064F00070B504460D46A168481CA060206845544C
:10650000D4E90110884202D3204603F08AFD70BD11
:106510000448406803490968884201D10120704756
:106520000020FCE72438002010B504462078022122
:10653000FFF796FC10BD0000F8B50546154903208D
:10654000FFF77CFD044600BF26463EB100BF12A205
:1065500040F2CB313046FEF76FF800BF00BF69460E
:106560000020FFF74DFC044600BF26463EB100BFA9
:1065700009A240F2CE313046FEF75EF800BF00BF00
:106580009DF80000022801D1012000E000202870C1
:10659000F8BD0000315F02002E2E5C2E2E5C2E2EE8
:1065A0005C6D61696E2E630001468879012809D10E
:1065B0000879012806D1488842F60212904201D19A
:1065C000012070470020FCE74FF0FF31054A42F8F8
:1065D0002010082804DBFF23A0F108015032535497
:1065E00070470000EC3300200146024850F82100BB
:1065F00070470000EC3300202DE9F04F03460C46B5
:106600004FF0FF390AB1002000E0082084460AB1AB
:10661000082000E00C208046614624E0154850F830
:106620002100401CF0B91D460846274616464FFA81
:1066300080FBDFF840A00AF1300A0AF805B0DFF865
:1066400034A04AF820704EB94FFA85FBA0F1080A31
:10665000DFF820E00EF1500E0EF80AB000BF4FFA3E
:1066600081F902E0491C4145D8D300BF4846BDE846
:10667000F08F0000EC33002001460148405670477F
:106680001C3400202DE9F04104460D464FF6FF76FC
:10669000304684420AD14FF48071284606F004FE49
:1066A0000646B6F5807F0FD126460DE0FF2C0BDCA9
:1066B0002146284606F0E8FD07460FB1204601E0D6
:1066C0004FF6FF70064600BF3046BDE8F08100007F
:1066D00070B505460DB9094C01E0084C083409E0D5
:1066E000204602F054F9064606B904E028467168CF
:1066F000884700BFF4E700BF70BD0000E033002012
:106700002DE9F04782461F480068002836D01D4812
:106710000068056807F0B6FB07461B480468214679
:10672000384608F06FFDC61C1848007808B907F015
:10673000BBFBAE4201D2284600E03046044424F0C0
:106740007F44204607F098FB07F09CFB80463946C3
:10675000404608F057FD00F103093946204608F08D
:1067600051FD814509D907F08DFB814607F084FB77
:106770002F2003F00BF808F093FE01E007F0B2FBC6
:10678000BDE8F087282800202C2800203A28002087
:1067900001460888062808DB0888B0F5486F06DD42
:1067A00008884FF6FF72904201D007207047488852
:1067B000062808DB4888B0F5486F06DD48884FF6A4
:1067C000FF72904201D00720F0E708884FF6FF7271
:1067D000904208D04888904205D008884A88904264
:1067E00001DD0720E2E70020E0E72DE9F041064661
:1067F0000D46144698462088801D404502D90C203D
:10680000BDE8F0813046FFF7C3FF074600BF0FB178
:106810003846F5E700BF0520218868542088401CD1
:1068200020801220218868542088401C20802288E3
:106830005119308809F065F92188084420802288A0
:106840005119708809F05DF92188084420800020E2
:10685000D6E7000010B5044600BF04A240F2832131
:106860002046FDF7E9FE00BF10BD00002E2E5C2E75
:106870002E5C2E2E5C6D61696E2E630030B587B084
:106880001C216846FCF711FE002000904FF42030D8
:1068900001904FF47020029003208DF80C0000202E
:1068A000ADF80E008DF810000A4805900A480690D1
:1068B0006846FEF71FFD044600BF25463DB100BFF8
:1068C00006A240F29A212846FDF7B6FE00BF00BF9F
:1068D00007B030BD51B70200556802002E2E5C2E65
:1068E0002E5C2E2E5C6D61696E2E6300F8B5054638
:1068F0000C46607A88B9207A10B91048476801E0E0
:106900000E4887682A4639466068FDF7B3FF064699
:1069100016B1304607F0E6FE0EE000202072074870
:10692000406948B101208DF80000ADF802500348DD
:1069300041696846884700BFF8BD0000042E00206A
:106940003EB504462088FEF72FFDD0B120881049BF
:106950000978FEF77DFD28B9208800220D490978C5
:10696000FEF78AFD2088ADF8020005208DF80000B2
:106970002088FEF725FD8DF80400684600F0E0FB56
:1069800005E02088012241F2060100F033F93EBD06
:10699000F7270020F627002010B501220021084625
:1069A000FFF70EFB044600BF1CB1072C01D02046A8
:1069B00010BD00BF072202210120FFF701FB0446A2
:1069C00000BF1CB1072C01D02046F1E700BF042214
:1069D00002210020FFF7F4FA044600BF1CB1072C87
:1069E00001D02046E4E700BF0020E1E77CB5044683
:1069F0000D46002000900190A81D00EBC400807996
:106A0000ADF80000A81D00EBC4008079ADF80200CD
:106A100000226946204690DF06464EB105490988A6
:106A2000012242EA014033462246034904F05EF85F
:106A30007CBD0000F02800203007030070B50C4931
:106A40000988032242EA01400AA104F039F806F05D
:106A500065FD044600BF25463DB100BF09A240F2D6
:106A600079312846FDF7E8FD00BF00BF70BD00008A
:106A700038290020457261736520626F6E6473214E
:106A8000000000002E2E5C2E2E5C2E2E5C6D6169A7
:106A90006E2E630070B506460D460EB1012070BD26
:106AA000287920B1012809D0022813D10FE0284607
:106AB00007F074F80446022028710DE0284600F023
:106AC0004BFE04460A2C01D141F61D5404E041F668
:106AD0001D5401E00F2400BF00BF2046DFE7000087
:106AE0002DE9F0478146002532E01C48006800EBA4
:106AF000C5042178012000FA01F6194800683040E9
:106B000020B317480068B04315490860207802F0A8
:106B1000D1FF0746217801208840124909680840C2
:106B2000217807FA01F188420FD16078012800D15D
:106B300000E00020784080F00108606820B108F093
:106B4000FF0120786268904700BF00BF681CC5B293
:106B5000054800788542C8DBBDE8F087142800208E
:106B600024280020202800201828002070B5044682
:106B700020793D2802D141F23D0001E04FF48850D8
:106B8000054620880022294602F0A2F870BD0000C8
:106B9000014614480078144A127890421DD01148DA
:106BA0000078401C0F4A107010460078022801D16E
:106BB000002010700D480B4A127850F8220008602F
:106BC0000B4A086812681044094A106010460068B1
:106BD00020F07F401060012070470020086000BF57
:106BE000FAE700003828002039280020302800204B
:106BF0002C280020FEB504460D461646094A07CA51
:106C00008DE80700ADF80240ADF804508DF806603D
:106C10000022054801782046FEF72EFC684600F069
:106C20008FFAFEBDFC020300F627002010B51048C5
:106C30000068807E60B106210120FEF745FD044614
:106C400024B10B480068416903208847002010BD2B
:106C5000012007490968487601210846FEF734FDFE
:106C600004461CB100200249096848762046EEE738
:106C700010280020F8B504460D4617461E460F485A
:106C8000807808B10820F8BD684606F031FE08B9E2
:106C90000420F8E70120009908710098046000982A
:106CA000866007480068B5FBF0F00099C86000985E
:106CB000476106F0E9FE0020E5E7000058280020C3
:106CC0008003030010B50446D4E90321501828DFDF
:106CD00010BD000013480078062820D11148001D7F
:106CE000007800F00F00D0B90E480830007800F0AE
:106CF000F000302801D1012070470A4808300078A0
:106D000000F0F000402801D10120F5E705480830E7
:106D1000007800F0F000502801D10120ECE70020BD
:106D2000EAE70000E00F00F013480078062820D1C1
:106D30001148001D007800F00F00D0B90E4808304F
:106D4000007800F0F000302801D1012070470A4897
:106D50000830007800F0F000402801D10120F5E76C
:106D600005480830007800F0F000502801D10120DB
:106D7000ECE70020EAE70000E00F00F0134800789D
:106D8000062820D11148001D007800F00F00D0B96E
:106D90000E480830007800F0F000302801D10120C2
:106DA00070470A480830007800F0F000402801D110
:106DB0000120F5E705480830007800F0F000502881
:106DC00001D10120ECE70020EAE70000E00F00F02D
:106DD0000A48007806280ED10848001D007800F007
:106DE0000F0040B905480830007800F0F000302866
:106DF00001D1012070470020FCE70000E00F00F007
:106E000013480078062820D11148001D007800F0B2
:106E10000F00D0B90E480830007800F0F00030289C
:106E200001D1012070470A480830007800F0F000D6
:106E3000402801D10120F5E705480830007800F02E
:106E4000F000502801D10120ECE70020EAE7000023
:106E5000E00F00F00A48007806280ED10848001D0F
:106E6000007800F00F0040B905480830007800F0C5
:106E7000F000302801D1012070470020FCE700001D
:106E8000E00F00F013480078062820D11148001DBB
:106E9000007800F00F00D0B90E480830007800F0FC
:106EA000F000302801D1012070470A4808300078EE
:106EB00000F0F000402801D10120F5E70548083036
:106EC000007800F0F000502801D10120ECE700200C
:106ED000EAE70000E00F00F00A48007806280ED12B
:106EE0000848001D007800F00F0040B90548083040
:106EF000007800F0F000302801D101207047002018
:106F0000FCE70000E00F00F00A48007806280ED1E8
:106F10000848001D007800F00F0040B9054808300F
:106F2000007800F0F000302801D1012070470020E7
:106F3000FCE70000E00F00F00A48007806280ED1B8
:106F40000848001D007800F00F0040B905480830DF
:106F5000007800F0F000502801D101207047002097
:106F6000FCE70000E00F00F00278072A38D2DFE8E3
:106F700002F037040712222B340000220A7030E09E
:106F800001220A7003898B818388CB81C2688A6061
:106F900000230B7425E002220A7003898B81838809
:106FA000CB81C2688A60827D062A01D1012300E07C
:106FB00000230B7415E003220A70C3888B810389B8
:106FC000CB81C2688A600CE004220A70C3888B817E
:106FD0000023CB8100228A6003E005220A7000E0D2
:106FE00000BF00BF7047000070B50546002409E0EF
:106FF000064850F8240020B1044850F824102846D0
:107000008847641C042CF3D370BD0000BC350020FD
:1070100030B585B004460D462068806808B905B0D3
:1070200030BD14216846FCF740FA0195A068049031
:10703000207910B1012813D107E001208DF800005C
:1070400020690290606903900BE002208DF8000037
:107050000749E0680968484302906069039000E0CE
:1070600000BF00BF206881686846884700BFD6E738
:10707000800303003EB505460C46DCB1112C19D047
:107080000020009001900290ADF8025001940D2C68
:1070900003D10B208DF8000008E0862C03D10A20D4
:1070A0008DF8000002E009208DF80000684600F02D
:1070B00057F800BF3EBD000070B50546002405E04E
:1070C000044850F8241028468847641C002CF7D048
:1070D00070BD0000B027002070B50546002405E013
:1070E000044850F8241028468847641C002CF7D028
:1070F00070BD0000BC27002070B50546002405E0E7
:10710000044850F8241028468847641C022CF7D302
:1071100070BD00008C02030070B50546002405E038
:10712000054850F8241028468847641C0348007816
:107130008442F5DB70BD000048330020F2270020B8
:1071400070B50546002405E0044850F82410284690
:107150008847641C022CF7D370BD0000C4020300F2
:1071600070B50546002405E0044850F82410284670
:107170008847641C002CF7D070BD00000803030092
:10718000F0B5034600241FE0124E306806689E42A8
:1071900003D90668F61A06601AE006689B1B0668A3
:1071A0003444002606600B4E35680A4FC6693E60BF
:1071B000C66846B10E1926F07F464660C6688660EE
:1071C0001668C661156000BF024800680028DBD160
:1071D00000BFF0BD28280020017821B1012906D088
:1071E000032910D109E00121084A11700CE041681F
:1071F00011B90121064A117006E0416811B9012157
:10720000044A117000E000BF00BF704774270020DF
:1072100075270020762700201FB50446606808B94E
:10722000012000E000200390207806287BD2DFE8D0
:1072300000F0820304304F7B00BFA08900F0ABFA5E
:1072400018B9E08906F0BBFD10B3A08900F09EFAE2
:10725000ADF80200E08906F0AFFD8DF8040020785B
:10726000012807D1606808B9002000E003208DF8EC
:10727000000006E0606808B9012000E004208DF8F5
:10728000000060680390A0680290684605F04AFA22
:1072900052E0A08900F07FFA18B9E08906F08FFD6E
:1072A000A8B1A08900F072FAADF80200E08906F0FA
:1072B00083FD8DF80400606808B9022000E0052015
:1072C0008DF80000A0680290684605F02BFA33E0C4
:1072D000A08900F060FA28B3E08918BBA08900F00B
:1072E00055FAADF80200E08906F066FD8DF804005D
:1072F000FF208DF80400606838B906208DF8000082
:10730000BDF8020005F020FC02E007208DF8000027
:1073100000200E4908700E49087005F05FFB6846B2
:1073200005F000FA08E006E008208DF80000684645
:1073300005F0F8F900E000BF00BF0448007820B174
:1073400000200249087005F049FB1FBDCD27002031
:10735000CE27002010B588B00446022000F042FA83
:1073600010B9022008B010BD4FF6FF70844201D161
:107370000420F7E705208DF8040001208DF80800AF
:10738000ADF80A4001A804F01BFD18B106F070FB2F
:107390000020E7E70820E5E700B587B0022000F00D
:1073A00021FA10B9022007B000BD06208DF80000B8
:1073B000684604F005FD48B10548007810B1012089
:1073C0000349087306F054FB0020ECE70820EAE7C5
:1073D0006436002030B58DB0142108A8FCF765F89C
:1073E000022000F0FFF928B108A8FFF7FDFD0020FA
:1073F0000DB030BD012000F0F5F908B10020F7E72D
:10740000012000F0FBF900F071FA00222049214828
:1074100002F037FF05460DB12846E9E701208DF857
:10742000040004F0ABFD04460C2C28D2DFE804F085
:10743000061407152722092327191E1A00BF0B203F
:10744000D6E7022000F0DAF9012000F0B1F908A82F
:10745000FFF7CAFD0020CBE700BF00208DF8080031
:107460000EE000BF03208DF8080009E002208DF82F
:10747000080005E000BF01208DF8080000E000BF13
:1074800000BF01A804F09CFC06F0F2FA0020AFE770
:1074900088030300DC28002038B504460CB9052019
:1074A00038BD6946204606F097FBE0B10F48BDF8AD
:1074B000001000EB01108089002812DDA07A80B155
:1074C0000A48BDF8001000EB01108089401E0749F2
:1074D000BDF8002001EB021188810020A072002578
:1074E00002E0062500E00A252846D9E744360020B8
:1074F0007FB514461D462B46224601A9684606F074
:1075000009FB04B070BD37B50C4615462B46224624
:107510006946002006F0FEFA3EBD37B50C4615461A
:107520002B4622460021684606F0F4FA3EBD02468C
:1075300002B109B905207047106808600020FAE719
:1075400038B504460D4604B10DB9052038BD69466D
:10755000204606F041FBA8B161680B48BDF8002049
:1075600000EB02108089401C074ABDF8003002EB96
:1075700003129081296060680C3068600120A0725D
:107580000020E3E70A20E1E74436002070B5044616
:107590000D460CB9052070BD032300222946204664
:1075A00008F002FDF7E770B504460D4602230022FD
:1075B0002946204608F0F8FC70BD70B505460E4619
:1075C00014460CB9052070BD0223224631462846D8
:1075D00008F0EAFCF7E700000146094A1278042A9D
:1075E00001D10C200AE0074A054B1B7842F8231012
:1075F000034A1278521C024B1A7000207047000098
:107600003D280020BC350020F8B504460D46022078
:1076100000F0E8F808B90220F8BD0CB90520FBE736
:107620006946284608F0CAFD06461EB9BDF80000A6
:10763000208065803046EFE770B50446022000F0F8
:10764000D1F808B9022070BD0CB90520FBE72088ED
:10765000022801DD0420F6E720880A4901EB001624
:1076600071896088C01C081A08D42188608808F0D5
:1076700097FD002020806080002500E0042528463A
:10768000E1E700004436002010B50748FFF7A4FFEB
:1076900004460CB1204610BDFFF79CFE04460CB119
:1076A0002046F8E70020F6E7D9710200F0B587B070
:1076B00004460D461646ADF80450ADF80660029437
:1076C0000121039100200949087001A904A8FFF7CE
:1076D0006AFF074617B1384607B0F0BD04A1002085
:1076E000059AFCF761F90020F6E7000075270020F5
:1076F00057726974696E6720616464726573732080
:107700003D2025780D0A000070B504460D462A4636
:107710000021204600F00EF8A068401CA06070BD5B
:1077200001468A68C868801A704701468A68C86836
:10773000801A704710B583680B448488234004681E
:10774000E35C137010BDC26883881A4003689954C3
:10775000C268521CC26070473EB504460A4B6A4676
:107760000021A01D06F0D6F9054635B9064A9188D4
:10777000019806F09FFA054603E0034800210160E6
:10778000416028463EBD00004C2800200146A1F57E
:10779000404080B270470146B1F5404F05DB4FF6DF
:1077A000FE70814201DC012070470020FCE70000F0
:1077B000024909788143014A117070473C28002032
:1077C00010B504462078182802D1FDF721FE20705C
:1077D00010BD10B504462078182802D1FDF718FE18
:1077E000207010BD014604480078084008B101200F
:1077F00070470020FCE700003C280020024909787F
:107800000143014A117070473C28002030B50446FE
:107810001088C01C984201D90C2030BD0220158868
:1078200048551088401C1080012015884855108844
:10783000401C108015884C551088401C108000207A
:10784000EBE700002DE9F04106460C4615460027FF
:10785000B846862C03D0112C01D0002C35D1862CB3
:1078600003D14FF00008012709E0112C03D14FF09C
:107870000108002703E014B94FF000080027C5B144
:107880003A46134801783046FDF7F6FD4246114866
:1078900001783046FDF7F0FD00220F4801783046B0
:1078A000FDF7EAFD00220D4801783046FDF7E4FDC2
:1078B0000BE03A46084801783046FDF7DDFD4246C8
:1078C000064801783046FDF7D7FDBDE8F08100009D
:1078D0000D2800200C28002009280020082800205E
:1078E00010B5002002F0DCFC10BD000010B54FF414
:1078F000405400F009F80349086108460069001B7C
:10790000C86010BDDC2800204FF010204169000441
:1079100002694369481C08B10846704703FB02F03E
:10792000FBE710B50446606806F016F810BD0000CD
:107930003EB500BF9DF8000020F00F00401C0090F5
:107940009DF8000020F0F0001030009000BF0922E8
:1079500017A168467CDF044600BF25463DB100BF45
:1079600016A240F29B112846FCF766FE00BF00BF3E
:107970000020019002905020ADF80400A020ADF846
:1079800006000020ADF808004FF4C870ADF80A00FA
:1079900001A87ADF044600BF25463DB100BF07A21B
:1079A00040F2A9112846FCF747FE00BF00BF3EBDCC
:1079B00066697273745F6170700000002E2E5C2E19
:1079C0002E5C2E2E5C6D61696E2E630070B50021F9
:1079D000084801F039FE044600BF25463DB100BF0E
:1079E00005A240F2E5312846FCF726FE00BF00BFA5
:1079F00070BD0000842900202E2E5C2E2E5C2E2EC1
:107A00005C6D61696E2E630070B505460DB1012095
:107A100070BD1848007B18B100201649087301E0BA
:107A200000F0D4F81348007808281DD2DFE800F0F1
:107A30001C04080C101C141800F03CF8044615E057
:107A400000F0B2F8044611E000F08EF804460DE0B4
:107A500000F044F8044609E000F01CF9044605E093
:107A600000F028F9044601E00F2400BF00BF2046C3
:107A7000CEE70000643600200C480089401C0B490A
:107A8000088100204880087300BF0CE0084901EB22
:107A90000011097809B9012200E0002203490A31E6
:107AA0000A54411C88B20228F0DB7047643600207B
:107AB0004436002010B5084800F032F840B90020E4
:107AC0000549891E08704880486041F61D5010BD68
:107AD00000F06AF8FBE700006636002070B50D483C
:107AE00045880D4800EB0510808968B90A4800EB0D
:107AF0000510002301224168084802F098FB044663
:107B000004200449087002E000F08CF80446204686
:107B100070BD00006436002044360020DC280020C0
:107B200010B501460022002015E00D4B1B5C83B10F
:107B300000240B4B1C540B4B03EB00139B8943B9E4
:107B4000084B03EB00139B7B012B02D10880012221
:107B500003E0431C98B20228E7DB00BF104610BDCB
:107B60006E36002044360020F8B50C4844680C48B6
:107B700000680B49898800EB81056088C01C86B2CB
:107B80000320064908700020B300009008462946EB
:107B90004268044802F028FCF8BD0000643600206A
:107BA00044280020DC28002010B507494888091D1A
:107BB00006F050F818B1FFF7D7FF044602E0FFF7D0
:107BC0008DFF0446204610BD6436002010B51448D1
:107BD0000078082820D2DFE800F0041F1F0A1016E2
:107BE000171BFFF749FF01200D49087015E000F051
:107BF0006DF802200A4908700FE000F029F806200D
:107C00000749087009E000BF07200549087004E033
:107C100001200349087000E000BF00BF10BD000054
:107C20006436002010B50520064908700220064978
:107C300088800846002301220168044802F0F7FA10
:107C400010BD00006436002044280020DC280020FD
:107C50000D4908680D4949880D4A02EB0111496830
:107C6000094A116009494988094A02EB0111486033
:107C700005498988054A5288054B03EB0212118198
:107C80000221014A91807047442800206436002078
:107C90004436002010B50620044908704988044A7B
:107CA00002EB0111486804F047F910BD643600206A
:107CB0004436002010B507200349087000204860B2
:107CC00004F04AF910BD000064360020054A5068EF
:107CD0004288D21C91B2044A92880A44024B9A808C
:107CE0007047000064360020442800203EB504465A
:107CF0002088502821D0522802D0542825D103E0D2
:107D0000A08801F0F9F820E006208DF80000A08896
:107D100000F0F6FBADF80200A088ADF80400BDF855
:107D2000020000F04FF9A08800220C490978FDF705
:107D3000A3FB6846FFF7C0F907E0A01DFEF734FC7F
:107D400010B1A08801F028F900BF00BFFCF778FF50
:107D500007F03CFF06F004FD3EBD0000B727002001
:107D60003EB504466088ADF80200207820B10128B5
:107D70000FD002282BD116E000208DF800006846B5
:107D8000FFF79AF9608800F0E5FA054601F0B4F8CB
:107D90001DE001208DF80000A088ADF804006846C1
:107DA000FFF78AF913E0207980B1608800F0D2FAF9
:107DB00005464FF6FF70854207D00122054801783D
:107DC0002846FDF759FB06F0CBFC00BF00BF00BF03
:107DD0003EBD0000B727002010B5044620780128DA
:107DE0000DD1608801F088F8608800F0CFF928B1E3
:107DF0006088012203490978FDF73EFB00E000BFDF
:107E000000BF10BDB727002010B500F0CDFCFDF776
:107E1000FFFA12490870FDF7FBFA11490870FDF7E7
:107E2000F7FA10490870FDF7F3FA0F4908700B488C
:107E3000007818280BD00A480078182807D009487D
:107E40000078182803D008460078182801D10320AC
:107E500010BD0120054908700020F9E7B527002072
:107E6000B6270020B7270020B8270020B42700201D
:107E700010B592B000F0BEF801A8FDF789FA002411
:107E800012E002A931F8140000F03AFB4FF6FF713E
:107E9000884207D102A931F8140001220649097865
:107EA000FDF7EAFA601C84B20198A042E9D806F016
:107EB00057FC12B010BD0000B727002010B50446D3
:107EC0002078072803D1608801F066F800E000BF41
:107ED00000BF10BD10B504460B4801782046FDF7E1
:107EE000B7FA70B100210AE001EB4100074A02EB4A
:107EF00080004088A04201D1C8B210BD491C14299D
:107F0000F2D3FF20F9E70000C7270020D82E002079
:107F100010B500240DE004EB4401084A02EB810196
:107F2000488807490978FDF793FA08B9E0B210BD0F
:107F3000641C142CEFD3FF20F9E70000D82E00209A
:107F4000C72700202DE9F04105460F46012000FA21
:107F500005F418480068FCF7B7FC06460EB1BDE80A
:107F6000F081154800682040E0B9284601F0A2FDE4
:107F700028B11248006820431049086004E00F4807
:107F80000068A0430D4908600B48006820430A4977
:107F9000086000220A48016806480068FCF76AFC8D
:107FA000064604E004480068A0430349086000BF97
:107FB000D5E70000540303002428002020280020D7
:107FC0001C2800201CB50446044903C9CDE9000162
:107FD00000226946204604F026FA1CBD84020300F4
:107FE00010B500F0E7FB012001490870002010BD2A
:107FF000C027002010B54FF6FF7004F0F5F80249D5
:10800000088006F0E3FB10BDC22700202DE9FC47E5
:108010008146484600F074FA0546002600274FF0D6
:1080200003084FF0010A4FF6FF7085420CD06A46F4
:108030000821284604F0C0F904462CB90198861D91
:108040008788D0F8008000BF00BF43463A463146DB
:108050004846A9DF0446042C01D1112415E0082C60
:1080600001D1002411E00B2C0FD14FF0000A08F0D1
:10807000020010B14FF0010807E006B927B1002651
:1080800000274FF0030800E003240B2CDDD0BAF1E9
:10809000000F00D10B242046BDE8FC872DE9FC47EA
:1080A0008046404600F02CFA07464FF6FF708742A4
:1080B00003D143F20200BDE8FC874FF001094FF005
:1080C000000A00BF4FF0000A4A46511C1FFA81F90E
:1080D0006B460821384604F0B1F9044604BB019D03
:1080E000032028602A1DA91D40462B68AADF0446EC
:1080F0002CB90821384604F057FA04460FE00C2C3E
:1081000002D14FF0010A02E0052C00D10024082121
:10811000384604F02DFA064606B1032400BF02E0FB
:10812000072C00D10C24BAF1000FCBD100BF2046A0
:10813000C1E700007FB50446207801281BD12079D3
:10814000012818D1608802AA012104F035F90546FA
:1081500085B902208DF800006088ADF8020003A800
:1081600008B1012000E000208DF804006846FEF709
:10817000B3FF00BF00BF044800884FF6FF7188427C
:1081800001D006F023FB7FBDC22700207CB504464A
:10819000204600F0B5F906466A460121304604F053
:1081A0000BF905460DB100207CBD01980078FBE776
:1081B00070B505464FF6FF7600BF4FF6FF720A48CE
:1081C00001882846A7DF044643F20300844204D115
:1081D00005480088401C0449088043F2030084429B
:1081E000EBD0204670BD0000C427002001468888DF
:1081F0004FF6FF72904203D0088808B10120704703
:108200000020FCE73EB504460D4620780221B1EB84
:10821000500F01D000203EBDB4F80100ADF80800B9
:10822000E0788DF80A00A188ADF80010A0798DF8EB
:10823000020001AA69462846FCF734F9032201A985
:1082400002A8FBF744F908B90120E4E70020E2E7BF
:1082500070B506460C463046FFF73CFE0546FF2D3E
:108260000CD005EB4500064901EB80004168216018
:108270000189A180807AA071002070BD0520FCE7F3
:10828000D82E002070B590B004462088102801D068
:1082900010B070BD3422211D03A8FBF7EDF84FF696
:1082A000FF759DF810000321B1EB500F35D004F09D
:1082B0009FFA9DF81000400820B1012803D0022841
:1082C00028D114E000BF09E0019800F1110104A8D1
:1082D000FBF7C8FF10B1BDF8085006E06A4602A9D6
:1082E000072004F057FA0028EED100BF13E008E0A1
:1082F0000198411C04A8FFF785FF10B1BDF8085094
:1083000006E06A4602A9072004F044FA0028EFD1EB
:1083100000BF00E000BF00BF00BFBDF80C0004A913
:1083200001F0B2F806464FF6FF7085420FD0BDF857
:108330000C00294600F088F8BDF80C00ADF80600E6
:1083400001208DF8040001A8FEF7D6FE00BF00BF93
:108350009EE70000024600210DE001EB4100084BC2
:1083600033F82000904205D101EB410003EB80007F
:1083700040887047491C1429EFD34FF6FF70F8E787
:10838000D82E002010B500F021FAFDF741F806497B
:10839000087008460078182801D1032010BD01207C
:1083A000024908700020F9E7C7270020C6270020EF
:1083B0002DE9F04104460D46601C00F0D4FA10B9D6
:1083C0000020BDE8F0811022691C601CFBF77FF8DB
:1083D00008B9012000E00020074605F1110104F171
:1083E0001100FBF73FFF064607B90EB10120E8E791
:1083F0000020E6E70246108808B1012070470021FE
:1084000005E0901C405C08B10120F7E7491C0829F1
:10841000F7D30020F2E770B505460C462846FFF773
:10842000E9FF08B9002070BD28882188884201D062
:108430000020F8E70822A11CA81CFBF748F808B99F
:108440000120F0E70020EEE770B504460D4629460E
:10845000204604F0DBFB70BD30B587B004462078C1
:1084600010B92079072801D007B030BD608804AA70
:10847000072103F0A1FF054605B1F5E704F0B8F9BF
:108480001EE06088BDF81810884200D118E00399FA
:108490000598FFF78DFF90B16088FFF75BFFADF89F
:1084A000020000208DF800006088ADF80400BDF8DF
:1084B0001810ADF806106846FEF71EFE07E000BF74
:1084C00002AA06A9072004F065F90028D9D100BF47
:1084D00000BFC9E770B506463046FFF73BFF0446CC
:1084E000304603F074FF05464FF6FF70844204D017
:1084F0001DB90146204604F089FB284670BD0000E6
:1085000070B505462846FFF7E5FC0446FF2C05D06C
:1085100004EB4400034931F8200070BD4FF6FF70B2
:10852000FBE70000D82E00203EB5044604F060F9B9
:1085300010E0019800F146012046FFF76CFF30B9CA
:10854000019800F12A012046FFF765FF10B1BDF840
:1085500008003EBD6A4602A9072004F01BF9002866
:10856000E7D14FF6FF70F4E770B504460D460948B1
:10857000606009480021016002F03AFF0649C870B6
:108580000648002101600020044908674867044943
:10859000086070BD8003030058280020803600204A
:1085A0005C2800202DE9F04106460C460F272EB12D
:1085B0000120FFF7FDF80120BDE8F081207930B1FE
:1085C00001280AD0022833D0032864D13EE003F00A
:1085D000C3FC0746012020715EE04FF00008002533
:1085E00016E0324800EB0510007802280ED12F4922
:1085F00001EB0511486803F09FFC074600202B495A
:1086000001EB051108704FF0010803E0681C85B20A
:10861000022DE6DB00BFB8F1000F08D10220FFF702
:10862000EDF80120FFF7C4F841F61D50C4E733E030
:108630001F480023012201681E4801F0F8FD07468B
:1086400002201B4988800020207125E01849086815
:1086500003F072FC0746184845881548D0F800809A
:10866000124800EB05104068114908600F4800EB04
:108670000510C0F80480084680880C4901EB0511FC
:10868000088102200A4988800020084901EB051171
:108690000870207100E000BF00BF27B10120FFF784
:1086A00087F80E2088E7002086E700004436002087
:1086B00044280020DC2800206436002002460021E7
:1086C0000CE001EB8100074B33F82000904204D10D
:1086D00001EB810003EB80007047491C0029F0D0BA
:1086E0000020F9E7F02D00202DE9FC5F83460E46BF
:1086F00091461F46DDE90C45002E01DA704200E08C
:10870000304682464FF0010803E09AFBF9FA08F17F
:108710000108CA45F9DA474500D9B84634B1002EF8
:1087200003DB05F00400042800D1641E05F00200FC
:1087300000B167B105F0010048B944B104E0641E1E
:1087400020215846FDF7D4FE0CB1A045F7D3002EEA
:1087500005DA76422D215846FDF7CAFE07E005F0FE
:108760000400042803D12B215846FDF7C1FE05F073
:10877000020002280DD105F0010050B94FB944B1F3
:1087800004E0641E30215846FDF7B2FE0CB1A0454E
:10879000F7D33B464A4631465846CDE9004507F0F7
:1087A000B9F9BDE8FC9F000000200149087070473E
:1087B000B42700200020034908704FF6FF700249DB
:1087C00008807047C0270020C227002018200849D1
:1087D0000870002008E04FF6FF7100EB4002054BE7
:1087E00003EB82025180401C1428F4D37047000030
:1087F000C7270020D82E002010B5002407E004EB86
:108800008401044A02EB810007F0A3FB641C082CDE
:10881000F5D310BDE82F002010B5044640212046B6
:10882000FAF743FE10BD00004FF6FF7005490880BF
:1088300000200549086018200449087004490870A0
:1088400070470000F0270020E8270020F3270020D1
:10885000F427002070B504460D4620791D4901EB30
:108860004010007FF8B14FF48871206802F0CDFE0F
:108870004FF49071206802F0C8FE4FF492712068A6
:1088800002F0C3FE4FF4A271206802F0BEFE12494E
:10889000206802F0CAFE206801F042F80646294628
:1088A00001F00EF814E04FF48E71206802F07DFEA6
:1088B0004FF4A271206802F078FE0849206802F0A7
:1088C00083FE206801F02CF80646294600F0F8FFE8
:1088D00070BD00004434002010030200800002003C
:1088E00001460348406F08B1012070470020FCE7B3
:1088F000803600202DE9F0410446A08800EB020CF0
:10890000B4F80480904501DD104600E0A088A8EB93
:108910000005E088C618B4F80680984501DD1846C1
:1089200000E0E088A8EB00074888B4F800804045E4
:1089300004DB4888B4F80280404502DD0020BDE831
:10894000F0818888A84202D38888604501D9002038
:10895000F5E7C888B84202D3C888B04201D90020E0
:10896000EDE70120EBE70246002104E0505C08B18E
:1089700001207047491C1029F8D30020F9E701466F
:1089800001F0030008B9012070470020FCE7014610
:10899000086808B102680A607047000010B508480E
:1089A000007850B1002405E0022C02D02046FDF7EB
:1089B000BDF9641C042CF7D301E0FDF7FBF910BDF1
:1089C0009027002010B504460448007800F001000C
:1089D00018B103480078FDF787FB10BD8C270020F5
:1089E0008827002010B50C2000F0CCFE00BF00F05E
:1089F000C1FE0028FBD10149887010BDD83300208A
:108A0000F721018017214180002101714171FB2173
:108A100081711B21C17170472DE9F04107460D4658
:108A200090461E462DB92948007810B90520BDE8AA
:108A3000F08135B142460021384606F019FA044665
:108A400005E042462249384606F012FA0446002262
:108A500021463846FEF7F6FE1EB121463846FEF79F
:108A600009FB112C0DD005DC34B3082C27D00D2CBC
:108A700026D122E0862C12D0A4F540500238F8B955
:108A80001CE02A46134801783846FCF7F5FC4246BC
:108A9000114801783846FCF7EFFC002412E02A4622
:108AA0000C4801783846FCF7E7FC42460A48017852
:108AB0003846FCF7E1FC05E000BF00BF00BF01E065
:108AC000032400BF00BF2046B1E7000002280020B9
:108AD000FD2700200B2800200A2800202DE9FC415A
